:020000020000FC
:040000000C946401F7
:040034000C94CF0059
:1000680004E60E94B700579A569A559A549A219ACC
:10007800209A2898299800E30E949F000AE00E948D
:10008800B70000E30E949F0008EC0E94C50000E34F
:100098000E949F0008EC0E94C50008E20E949F0091
:1000A80000E50E94C50008E20E94940000E50E9455
:1000B800C50008E00E94940000E50E94C50001E028
:1000C8000E94940004E00E94B70006E00E94940099
:1000D80000E50E94C5000CE00E94940000E50E9423
:1000E800C5000895FF93EF93EE0FFF1F00680E946D
:1000F800940000E50E94C5000591003031F00E948F
:100108008C0000E50E94C500F7CFEF91FF9108959C
:10011800289A29980E949F0002950E949F0008959E
:10012800289829980E949F0002950E949F0004E049
:100138000E94B70008955F9A07FF5F985E9A06FFCE
:100148005E985D9A05FF5D985C9A04FF5C98299A11
:100158000E94CA0029980E94CA0008950E94BC0003
:100168002197E1F708950E94BC000A95E1F70895E8
:10017800CF93DF93CBE9DFE02197F1F7DF91CF91C0
:1001880008950E94CA000A95E1F708950F930F9108
:100198000F930F91089523361CF423950C94E700D0
:1001A8003B3324F4222733950C94E7004B3324F493
:1001B800332743950C94E700473124F4442753959B
:1001C8000C94E70055273F930F931F93343664F43C
:1001D8001AE00027311724F00395311B0C94EE0028
:1001E800005D105D0C94FA0033E203E2AF93BF9315
:1001F800B1E0A6E00D931D9311271C93BF91AF9119
:100208001F910F913F914F930F931F93443664F4BE
:100218001AE00027411724F00395411B0C940E01A6
:10022800005D105D0C941A0143E203E2AF93BF93A3
:10023800B1E0A9E00D931D9311271C93BF91AF91D5
:100248001F910F914F915F930F931F93543664F44E
:100258001AE00027511724F00395511B0C942E0126
:10026800005D105D0C943A0153E203E2AF93BF9333
:10027800B1E0ACE00D931D9311271C93BF91AF9192
:100288001F910F915F9100E000680E949400AF9366
:10029800BF93B1E0ACE00E948D01BF91AF91AF93E5
:1002A800BF93B1E0A9E00E948D01BF91AF91AF93D8
:1002B800BF93B1E0A6E00E948D01BF91AF91189560
:1002C8000FEF0DBF08E00EBF00E00093800001E0D3
:1002D80000600093810000E00093820001E0009339
:1002E8006F000E94340001E00E9494002227332707
:1002F8004427552778940C947F013A000F9300689F
:100308000E94940000E50E94C5000F910E948D0193
:1003180008950F93BF93AF930D91003031F00E9471
:100328008C0000E50E94C500F7CFAF91BF910F91F7
:02033800089526
:00000001FF
