:020000020000FC
:040000000C94260135
:04002C000C943400FC
:040054000C945200B6
:10006800072F01700030C9F429301CF423950C9433
:10007800500022273B331CF433950C94500033274F
:100088004B331CF443950C945000442757311CF40F
:1000980053950C9450005527746018950F936091F0
:1000A8007900603F18F07D7F0C948800072F02705C
:1000B800003051F578946C3828F001E070277660AC
:1000C8000C9488006A3538F0539558310CF0552750
:1000D80076600C948800673338F043954C330CF005
:1000E800442776600C948800643138F0465F4C33BE
:1000F8000CF04C5376600C948800303019F033279C
:100108000C9487003EE17660F8940F91189504E608
:100118000E940E01579A569A559A549A219A209AF3
:100128002898299800E30E94F6000AE00E940E0130
:1001380000E30E94F60008EC0E941C0100E30E9404
:10014800F60008EC0E941C0108E20E94F60000E597
:100158000E941C0108E20E94EB0000E50E941C01BD
:1001680008E00E94EB0000E50E941C0101E00E94EB
:10017800EB0004E00E940E0106E00E94EB0000E59F
:100188000E941C010CE00E94EB0000E50E941C018B
:100198000895FF93EF93EE0FFF1F00680E94EB0096
:1001A80000E50E941C010591003031F00E94E30037
:1001B80000E50E941C01F7CFEF91FF910895289A5E
:1001C80029980E94F60002950E94F6000895289842
:1001D80029980E94F60002950E94F60004E00E9409
:1001E8000E0108955F9A07FF5F985E9A06FF5E9872
:1001F8005D9A05FF5D985C9A04FF5C98299A0E94B5
:10020800210129980E94210108950E941301219734
:10021800E1F708950E9413010A95E1F70895CF9335
:10022800DF93CBE9DFE02197F1F7DF91CF910895D4
:100238000E9421010A95E1F708950F930F910F93FA
:100248000F9108950FEF0DBF08E00EBF00E0009377
:10025800800003E008600093810000E000938200C2
:100268001FE50FEF109389000093880002E00093C8
:100278006F000E7F0093640000E600937C0001E0AD
:1002880000937E0003E00093690000E000931D00E6
:100298000FEE00937A0000E000937B000E948B0031
:1002A80001E00E94EB0022273327442755276627C1
:1002B80074E078940EEF07B9002708B9072F047087
:1002C8000430E1F73F930F931F93343664F41AE038
:1002D8000027311724F00395311B0C946D01005D44
:1002E800305D0C94790113E203E2AF93BF93B1E060
:1002F800A3E00D933D9311271C93BF91AF911F91DC
:100308000F913F914F930F931F93443664F41AE073
:100318000027411724F00395411B0C948D01005DC3
:10032800405D0C94990113E203E2AF93BF93B1E0EF
:10033800A6E00D934D9311271C93BF91AF911F9188
:100348000F914F915F930F931F93543664F41AE003
:100358000027511724F00395511B0C94AD01005D43
:10036800505D0C94B90113E203E2AF93BF93B1E07F
:10037800A9E00D935D9311271C93BF91AF911F9135
:100388000F915F91F89400E000680E94EB00789468
:10039800F8940F93AF93BF93B1E0A9E000E00E94F7
:1003A8000C02BF91AF910F910F93EF93FF93F2E07F
:1003B800EBE002E00E94CD000F91FF91EF910F93C7
:1003C800AF93BF93B1E0A6E003E00E940C02BF9197
:1003D800AF910F910F93EF93FF93F2E0EBE005E0FD
:1003E8000E94CD000F91FF91EF910F93AF93BF93B0
:1003F800B1E0A3E006E00E940C02BF91AF910F911B
:100408007B7F00E50E941C0178940C9462013A00FD
:100418000F9300680E94EB0000E50E941C010F91F9
:100428000E94170208950F93BF93AF930D91003068
:1004380031F00E94E30000E50E941C01F7CFAF9164
:06044800BF910F91089521
:00000001FF
