:020000020000FC
:040000000C94EA0072
:1000680048656C6C6F20576F726C6421000004E661
:100078000E94BE00579A569A559A549A219A209AE5
:100088002898299800E30E94A6000AE00E94BE0072
:1000980000E30E94A60008EC0E94CC0000E30E9446
:1000A800A60008EC0E94CC0008E20E94A60000E529
:1000B8000E94CC0008E20E949B0000E50E94CC0050
:1000C80008E00E949B0000E50E94CC0001E00E942D
:1000D8009B0004E00E94BE0006E00E949B0000E531
:1000E8000E94CC000CE00E949B0000E50E94CC001E
:1000F8000895FF93EF93EE0FFF1F00680E949B0087
:1001080000E50E94CC000591003031F00E94930078
:1001180000E50E94CC00F7CFEF91FF910895289A4F
:1001280029980E94A60002950E94A6000895289882
:1001380029980E94A60002950E94A60004E00E9449
:10014800BE0008955F9A07FF5F985E9A06FF5E9863
:100158005D9A05FF5D985C9A04FF5C98299A0E9455
:10016800D10029980E94D10008950E94C3002197C8
:10017800E1F708950E94C3000A95E1F70895CF9327
:10018800DF93CBE9DFE02197F1F7DF91CF91089575
:100198000E94D1000A95E1F708950F930F910F93EC
:1001A8000F910895BF93AF9300680E949B0000E5EC
:1001B8000E94CC000D91003031F00E94930000E5C0
:1001C8000E94CC00F7CFAF91BF9108950FEF0DBFFC
:1001D80008E00EBF0E943B0001E00E949B00F0E097
:1001E800E4E300E00E947D00A0E0B1E00AE30D93A3
:1001F80009E20D9300E00D9300E00D93B1E0A0E05B
:0A02080000E40E94D6000C940701E8
:00000001FF
