:020000020000FC
:040000000C94350126
:04002C000C943400FC
:040054000C945A00AE
:100068000F9300915F000F93072F01700030E9F4A0
:1000780029301CF423950C94540022273B331CF49C
:1000880033950C94540033274B331CF443950C944C
:100098005400442757311CF453950C9454005527A9
:1000A80074600F9100935F000F9118950F931F9341
:1000B80000915F000F9360917900603F18F07D7F99
:1000C8000C949400072F0270003051F578946C3826
:1000D80028F001E0702776600C9494006A3538F0B7
:1000E800539558310CF0552776600C94940067337B
:1000F80038F043954C330CF0442776600C94940008
:10010800643138F0465F4C330CF04C5376600C94F5
:100118009400303019F033270C9493003EE1766058
:100128000F9100935F001F910F91189504E60E94AC
:100138001D01579A569A559A549A219A209A2898A6
:10014800299800E30E9405010AE00E941D0100E3CE
:100158000E94050108EC0E942B0100E30E940501A2
:1001680008EC0E942B0108E20E94050100E50E94AC
:100178002B0108E20E94FA0000E50E942B0108E02A
:100188000E94FA0000E50E942B0101E00E94FA009B
:1001980004E00E941D0106E00E94FA0000E50E94AA
:1001A8002B010CE00E94FA0000E50E942B01089543
:1001B800FF93EF93EE0FFF1F00680E94FA0000E51F
:1001C8000E942B010591003031F00E94F20000E5F9
:1001D8000E942B01F7CFEF91FF910895289A299853
:1001E8000E94050102950E94050108952898299802
:1001F8000E94050102950E94050104E00E941D016C
:1002080008955F9A07FF5F985E9A06FF5E985D9A69
:1002180005FF5D985C9A04FF5C98299A0E9430015A
:1002280029980E94300108950E9422012197E1F740
:1002380008950E9422010A95E1F70895CF93DF936C
:10024800CBE9DFE02197F1F7DF91CF9108950E9484
:1002580030010A95E1F708950F930F910F930F91CD
:1002680008950FEF0DBF08E00EBF00E00093800077
:1002780003E008600093810000E0009382001FE51E
:100288000FEF109389000093880002E000936F003D
:100298000E7F0093640000E600937C0001E0009369
:1002A8007E0003E00093690000E000931D000FEE5C
:1002B80000937A0000E000937B000E949A0001E01E
:1002C8000E94FA002227332744275527662774E01F
:1002D80078940EEF07B9002708B9072F0470043087
:1002E800E1F73F930F931F93343664F41AE0002725
:1002F800311724F00395311B0C947C01005D305DAF
:100308000C94880113E203E2AF93BF93B1E0A3E03A
:100318000D933D9311271C93BF91AF911F910F919E
:100328003F914F930F931F93443664F41AE00027CC
:10033800411724F00395411B0C949C01005D405D1E
:100348000C94A80113E203E2AF93BF93B1E0A6E0D7
:100358000D934D9311271C93BF91AF911F910F914E
:100368004F915F930F931F93543664F41AE000275C
:10037800511724F00395511B0C94BC01005D505D8E
:100388000C94C80113E203E2AF93BF93B1E0A9E074
:100398000D935D9311271C93BF91AF911F910F91FE
:1003A8005F9100E000680E94FA000F93AF93BF933B
:1003B800B1E0A9E000E00E941702BF91AF910F9150
:1003C8000F93EF93FF93F2E0E6E102E00E94DC0076
:1003D8000F91FF91EF910F93AF93BF93B1E0A6E018
:1003E80003E00E941702BF91AF910F910F93EF9313
:1003F800FF93F2E0E6E105E00E94DC000F91FF9137
:10040800EF910F93AF93BF93B1E0A3E006E00E9492
:100418001702BF91AF910F917B7F00E50E942B01DE
:100428000C9471013A000F9300680E94FA0000E5ED
:100438000E942B010F910E94220208950F93BF93EF
:10044800AF930D91003031F00E94F20000E50E9458
:0C0458002B01F7CFAF91BF910F910895D9
:00000001FF
