:020000020000FC
:040000000C94B801A3
:040034000C94CF0059
:040054000C94850182
:1000680004E60E94B700579A569A559A549A219ACC
:10007800209A2898299800E30E949F000AE00E948D
:10008800B70000E30E949F0008EC0E94C50000E34F
:100098000E949F0008EC0E94C50008E20E949F0091
:1000A80000E50E94C50008E20E94940000E50E9455
:1000B800C50008E00E94940000E50E94C50001E028
:1000C8000E94940004E00E94B70006E00E94940099
:1000D80000E50E94C5000CE00E94940000E50E9423
:1000E800C5000895FF93EF93EE0FFF1F00680E946D
:1000F800940000E50E94C5000591003031F00E948F
:100108008C0000E50E94C500F7CFEF91FF9108959C
:10011800289A29980E949F0002950E949F0008959E
:10012800289829980E949F0002950E949F0004E049
:100138000E94B70008955F9A07FF5F985E9A06FFCE
:100148005E985D9A05FF5D985C9A04FF5C98299A11
:100158000E94CA0029980E94CA0008950E94BC0003
:100168002197E1F708950E94BC000A95E1F70895E8
:10017800CF93DF93CBE9DFE02197F1F7DF91CF91C0
:1001880008950E94CA000A95E1F708950F930F9108
:100198000F930F9108957030C1F429301CF4239502
:1001A8000C94E90022273B331CF433950C94E900A6
:1001B80033274B331CF443950C94E90044275731FB
:1001C8001CF453950C94E90055273F930F931F9304
:1001D800343664F41AE00027311724F00395311BF4
:1001E8000C94F000005D305D0C94FC0013E203E217
:1001F800AF93BF93B1E0A3E00D933D9311271C93F8
:10020800BF91AF911F910F913F914F930F931F9300
:10021800443664F41AE00027411724F00395411B83
:100228000C941001005D405D0C941C0113E203E284
:10023800AF93BF93B1E0A6E00D934D9311271C93A4
:10024800BF91AF911F910F914F915F930F931F93A0
:10025800543664F41AE00027511724F00395511B13
:100268000C943001005D505D0C943C0113E203E2F4
:10027800AF93BF93B1E0A9E00D935D9311271C9351
:10028800BF91AF911F910F915F9100E000680E94AC
:1002980094000F93AF93BF93B1E0A9E000E00E94F0
:1002A800F101BF91AF910F910F93EF93FF93F1E09D
:1002B800E0EF02E00E9476000F91FF91EF910F931B
:1002C800AF93BF93B1E0A6E003E00E94F101BF91B4
:1002D800AF910F910F93EF93FF93F1E0E0EF05E0FB
:1002E8000E9476000F91FF91EF910F93AF93BF9308
:1002F800B1E0A3E006E00E94F101BF91AF910F9138
:10030800189560917900603F10F088271895803023
:1003180051F578946C3828F001E0702781E00C944E
:10032800B7016A3538F0539558310CF0552781E0FC
:100338000C94B701673338F043954C330CF04427DD
:1003480081E00C94B701643138F0465F4C330CF00F
:100358004C5381E00C94B701303019F033270C94DA
:10036800B6013EE181E018950FEF0DBF08E00EBF22
:1003780000E00093800002E000600093810000E04C
:100388000093820001E000936F000E7F00936400E9
:1003980000E600937C0001E000937E0003E00093F8
:1003A800690000E000931D000FEE00937A0000E062
:1003B80000937B000E94340001E00E9494002227F1
:1003C8003327442755276627772778940EEF07B9F0
:1003D800002708B90C94EE013A000F9300680E94B8
:1003E800940000E50E94C5000F910E94FC01089549
:1003F8000F93BF93AF930D91003031F00E948C00A2
:1004080000E50E94C500F7CFAF91BF910F91089505
:00000001FF
