:020000020000FC
:040000000C9420013B
:04002C000C943400FC
:040034000C943400F4
:040054000C945200B6
:10006800082F01700030C9F429301CF423950C9432
:10007800500022273B331CF433950C94500033274F
:100088004B331CF443950C945000442757311CF40F
:1000980053950C9450005527846018956091790009
:1000A800603F10F077271895703051F578946C38C8
:1000B80028F001E0802771E00C9484006A3538F05C
:1000C800539558310CF0552771E00C948400673330
:1000D80038F043954C330CF0442771E00C948400BD
:1000E800643138F0465F4C330CF04C5371E00C949B
:1000F8008400303019F033270C9483003EE171E01E
:10010800189504E60E940801579A569A559A549AE7
:10011800219A209A2898299800E30E94F0000AE082
:100128000E94080100E30E94F00008EC0E941601FA
:1001380000E30E94F00008EC0E94160108E20E9409
:10014800F00000E50E94160108E20E94E50000E5C3
:100158000E94160108E00E94E50000E50E941601D1
:1001680001E00E94E50004E00E94080106E00E9408
:10017800E50000E50E9416010CE00E94E50000E59C
:100188000E9416010895FF93EF93EE0FFF1F00687A
:100198000E94E50000E50E9416010591003031F04B
:1001A8000E94DD0000E50E941601F7CFEF91FF9154
:1001B8000895289A29980E94F00002950E94F0005C
:1001C8000895289829980E94F00002950E94F0004E
:1001D80004E00E94080108955F9A07FF5F985E9AFD
:1001E80006FF5E985D9A05FF5D985C9A04FF5C982F
:1001F800299A0E941B0129980E941B0108950E94B8
:100208000D012197E1F708950E940D010A95E1F784
:100218000895CF93DF93CBE9DFE02197F1F7DF91E2
:10022800CF9108950E941B010A95E1F708950F9355
:100238000F910F930F9108950FEF0DBF08E00EBFB8
:1002480000E00093800003E008600093810000E074
:10025800009382001FE50FEF109389000093880038
:1002680002E000936F000E7F0093640000E60093A5
:100278007C0001E000937E0003E00093690000E049
:1002880000931D000FEE00937A0000E000937B00BE
:100298000E94850001E00E94E500222733274427B9
:1002A8005527662784E078940EEF07B9002708B928
:1002B800082F04700430E1F73F930F931F933436EF
:1002C80064F41AE00027311724F00395311B0C94CD
:1002D8006701005D305D0C94730113E203E2AF9394
:1002E800BF93B1E0A3E00D933D9311271C93BF91F9
:1002F800AF911F910F913F914F930F931F934436E6
:1003080064F41AE00027411724F00395411B0C946C
:100318008701005D405D0C94930113E203E2AF9303
:10032800BF93B1E0A6E00D934D9311271C93BF91A5
:10033800AF911F910F914F915F930F931F93543675
:1003480064F41AE00027511724F00395511B0C940C
:10035800A701005D505D0C94B30113E203E2AF9373
:10036800BF93B1E0A9E00D935D9311271C93BF9152
:10037800AF911F910F915F9100E000680E94E50026
:100388000F93AF93BF93B1E0A9E000E00E9402028F
:10039800BF91AF910F910F93EF93FF93F2E0E1E0DC
:1003A80002E00E94C7000F91FF91EF910F93AF9366
:1003B800BF93B1E0A6E003E00E940202BF91AF91B3
:1003C8000F910F93EF93FF93F2E0E1E005E00E94B5
:1003D800C7000F91FF91EF910F93AF93BF93B1E0D7
:1003E800A3E006E00E940202BF91AF910F918B7FBC
:1003F80000E50E9416010C945C013A000F93006816
:100408000E94E50000E50E9416010F910E940D026E
:1004180008950F93BF93AF930D91003031F00E9470
:10042800DD0000E50E941601F7CFAF91BF910F9153
:02043800089525
:00000001FF
