:020000020000FC
:040000000C941E013D
:04002C000C943400FC
:040034000C943400F4
:040054000C945000B8
:100068007030C9F429301CF423950C944E002227D3
:100078003B331CF433950C944E0033274B331CF45C
:1000880043950C944E00442757311CF453950C9417
:100098004E0055279460189560917900603F10F0E4
:1000A80088271895803051F578946C3828F001E04D
:1000B800702781E00C9482006A3538F053955831E6
:1000C8000CF0552781E00C948200673338F0439593
:1000D8004C330CF0442781E00C948200643138F0F2
:1000E800465F4C330CF04C5381E00C948200303066
:1000F80019F033270C9481003EE181E0189504E65D
:100108000E940601579A569A559A549A219A209A0B
:100118002898299800E30E94EE000AE00E94060150
:1001280000E30E94EE0008EC0E94140100E30E9424
:10013800EE0008EC0E94140108E20E94EE0000E5BF
:100148000E94140108E20E94E30000E50E941401E5
:1001580008E00E94E30000E50E94140101E00E940B
:10016800E30004E00E94060106E00E94E30000E5C7
:100178000E9414010CE00E94E30000E50E941401B3
:100188000895FF93EF93EE0FFF1F00680E94E300AE
:1001980000E50E9414010591003031F00E94DB0057
:1001A80000E50E941401F7CFEF91FF910895289A76
:1001B80029980E94EE0002950E94EE000895289862
:1001C80029980E94EE0002950E94EE0004E00E9429
:1001D800060108955F9A07FF5F985E9A06FF5E988A
:1001E8005D9A05FF5D985C9A04FF5C98299A0E94C5
:1001F800190129980E94190108950E940B0121975D
:10020800E1F708950E940B010A95E1F70895CF934D
:10021800DF93CBE9DFE02197F1F7DF91CF910895E4
:100228000E9419010A95E1F708950F930F910F9312
:100238000F9108950FEF0DBF08E00EBF00E0009387
:10024800800003E008600093810000E000938200D2
:100258001FE50FEF109389000093880002E00093D8
:100268006F000E7F0093640000E600937C0001E0BD
:1002780000937E0003E00093690000E000931D00F6
:100288000FEE00937A0000E000937B000E94830049
:1002980001E00E94E30022273327442755276627D9
:1002A800772794E078940EEF07B9002708B9092F4B
:1002B80004700430E1F73F930F931F93343664F4CE
:1002C8001AE00027311724F00395311B0C946601BE
:1002D800005D305D0C94720113E203E2AF93BF93AB
:1002E800B1E0A3E00D933D9311271C93BF91AF910B
:1002F8001F910F913F914F930F931F93443664F4CE
:100308001AE00027411724F00395411B0C9486013D
:10031800005D405D0C94920113E203E2AF93BF933A
:10032800B1E0A6E00D934D9311271C93BF91AF91B7
:100338001F910F914F915F930F931F93543664F45D
:100348001AE00027511724F00395511B0C94A601BD
:10035800005D505D0C94B20113E203E2AF93BF93CA
:10036800B1E0A9E00D935D9311271C93BF91AF9164
:100378001F910F915F9100E000680E94E3000F93C6
:10038800AF93BF93B1E0A9E000E00E940102BF91E2
:10039800AF910F910F93EF93FF93F2E0E0E002E04B
:1003A8000E94C5000F91FF91EF910F93AF93BF93F8
:1003B800B1E0A6E003E00E940102BF91AF910F9166
:1003C8000F93EF93FF93F2E0E0E005E00E94C50091
:1003D8000F91FF91EF910F93AF93BF93B1E0A3E01B
:1003E80006E00E940102BF91AF910F919B7F00E54B
:1003F8000E9414010C945B013A000F9300680E945C
:10040800E30000E50E9414010F910E940C02089578
:100418000F93BF93AF930D91003031F00E94DB0032
:1004280000E50E941401F7CFAF91BF910F91089595
:00000001FF
