:020000020000FC
:040000000C94220139
:04002C000C943400FC
:040054000C945200B6
:10006800072F01700030C9F429301CF423950C9433
:10007800500022273B331CF433950C94500033274F
:100088004B331CF443950C945000442757311CF40F
:1000980053950C9450005527746018956091790019
:1000A800603F10F07D7F1895072F0270003051F5E2
:1000B80078946C3828F001E0702776600C948600FC
:1000C8006A3538F0539558310CF0552776600C9402
:1000D8008600673338F043954C330CF0442776603C
:1000E8000C948600643138F0465F4C330CF04C5366
:1000F80076600C948600303019F033270C94850014
:100108003EE17660189504E60E940A01579A569ACD
:10011800559A549A219A209A2898299800E30E947F
:10012800F2000AE00E940A0100E30E94F20008ECD3
:100138000E94180100E30E94F20008EC0E941801D6
:1001480008E20E94F20000E50E94180108E20E94FD
:10015800E70000E50E94180108E00E94E70000E5BA
:100168000E94180101E00E94E70004E00E940A01D1
:1001780006E00E94E70000E50E9418010CE00E94DA
:10018800E70000E50E9418010895FF93EF93EE0F32
:10019800FF1F00680E94E70000E50E941801059112
:1001A800003031F00E94DF0000E50E941801F7CF0F
:1001B800EF91FF910895289A29980E94F2000295DC
:1001C8000E94F2000895289829980E94F20002954A
:1001D8000E94F20004E00E940A0108955F9A07FF56
:1001E8005F985E9A06FF5E985D9A05FF5D985C9A37
:1001F80004FF5C98299A0E941D0129980E941D01FC
:1002080008950E940F012197E1F708950E940F01B8
:100218000A95E1F70895CF93DF93CBE9DFE02197C3
:10022800F1F7DF91CF9108950E941D010A95E1F73A
:1002380008950F930F910F930F9108950FEF0DBF2E
:1002480008E00EBF00E00093800003E00860009320
:10025800810000E0009382001FE50FEF10938900F2
:100268000093880002E000936F000E7F0093640003
:1002780000E600937C0001E000937E0003E0009319
:10028800690000E000931D000FEE00937A0000E083
:1002980000937B000E94870001E00E94E70022276C
:1002A800332744275527662774E078940EEF07B95B
:1002B800002708B9072F04700430E1F73F930F9324
:1002C8001F93343664F41AE00027311724F003959D
:1002D800311B0C946901005D305D0C94750113E2CB
:1002E80003E2AF93BF93B1E0A3E00D933D931127D1
:1002F8001C93BF91AF911F910F913F914F930F9313
:100308001F93443664F41AE00027411724F003953C
:10031800411B0C948901005D405D0C94950113E22A
:1003280003E2AF93BF93B1E0A6E00D934D9311277D
:100338001C93BF91AF911F910F914F915F930F93B2
:100348001F93543664F41AE00027511724F00395DC
:10035800511B0C94A901005D505D0C94B50113E28A
:1003680003E2AF93BF93B1E0A9E00D935D9311272A
:100378001C93BF91AF911F910F915F91F89400E08A
:1003880000680E94E7007894F8940F93AF93BF93A6
:10039800B1E0A9E000E00E940802BF91AF910F917F
:1003A8000F93EF93FF93F2E0E7E002E00E94C900A9
:1003B8000F91FF91EF910F93AF93BF93B1E0A6E038
:1003C80003E00E940802BF91AF910F910F93EF9342
:1003D800FF93F2E0E7E005E00E94C9000F91FF916A
:1003E800EF910F93AF93BF93B1E0A3E006E00E94B3
:1003F8000802BF91AF910F917B7F00E50E94180121
:1004080078940C945E013A000F9300680E94E7000C
:1004180000E50E9418010F910E94130208950F939E
:10042800BF93AF930D91003031F00E94DF0000E5DB
:0E0438000E941801F7CFAF91BF910F91089568
:00000001FF
