:020000020000FC
:040000000C94EC0070
:100034000C94CB0004E60E949F00579A569A559A56
:10004400549A219A209A2898299800E30E948700BC
:100054000AE00E949F0000E30E94870008EC0E94CF
:10006400AD0000E30E94870008EC0E94AD0008E2A6
:100074000E94870000E50E94AD0008E20E947C0017
:1000840000E50E94AD0008E00E947C0000E50E94AB
:10009400AD0001E00E947C0004E00E949F0006E0A5
:1000A4000E947C0000E50E94AD000CE00E947C00F0
:1000B40000E50E94AD000895FF93EF93EE0FFF1F3C
:1000C40000680E947C0000E50E94AD0005910030AC
:1000D40031F00E94740000E50E94AD00F7CFEF916B
:1000E400FF910895289A29980E94870002950E94FA
:1000F40087000895289829980E94870002950E94F5
:10010400870004E00E949F0008955F9A07FF5F98AC
:100114005E9A06FF5E985D9A05FF5D985C9A04FFFF
:100124005C98299A0E94B20029980E94B20008950E
:100134000E94A4002197E1F708950E94A4000A9563
:10014400E1F70895CF93DF93CBE9DFE02197F1F74F
:10015400DF91CF9108950E94B2000A95E1F70895C6
:100164000F930F910F930F910895BF93AF9300686E
:100174000E947C0000E50E94AD000D91003031F03A
:100184000E94740000E50E94AD00F7CFAF91BF91CB
:1001940008951F3019F013950C94D100112700E035
:1001A40000680E947C00012F0A301CF4005D0C944E
:1001B400E10000311CF4095C0C94E10003E2A0E0CE
:1001C400B1E00D9300E00C93B1E0A0E000E00E94E8
:1001D400B70018950FEF0DBF08E00EBF00E00093C5
:1001E400800004E00093810000E00093820001E0BD
:1001F40000936F000E941C0001E00E947C00112704
:0602040078940C94030144
:00000001FF
