:020000020000FC
:040000000C9421013A
:040034000C94E30045
:1000680004E60E94B700579A569A559A549A219ACC
:10007800209A2898299800E30E949F000AE00E948D
:10008800B70000E30E949F0008EC0E94C50000E34F
:100098000E949F0008EC0E94C50008E20E949F0091
:1000A80000E50E94C50008E20E94940000E50E9455
:1000B800C50008E00E94940000E50E94C50001E028
:1000C8000E94940004E00E94B70006E00E94940099
:1000D80000E50E94C5000CE00E94940000E50E9423
:1000E800C5000895FF93EF93EE0FFF1F00680E946D
:1000F800940000E50E94C5000591003031F00E948F
:100108008C0000E50E94C500F7CFEF91FF9108959C
:10011800289A29980E949F0002950E949F0008959E
:10012800289829980E949F0002950E949F0004E049
:100138000E94B70008955F9A07FF5F985E9A06FFCE
:100148005E985D9A05FF5D985C9A04FF5C98299A11
:100158000E94CA0029980E94CA0008950E94BC0003
:100168002197E1F708950E94BC000A95E1F70895E8
:10017800CF93DF93CBE9DFE02197F1F7DF91CF91C0
:1001880008950E94CA000A95E1F708950F930F9108
:100198000F930F910895BF93AF9300680E94940046
:1001A80000E50E94C5000D91003031F00E948C00DE
:1001B80000E50E94C500F7CFAF91BF91089523369F
:1001C8001CF423950C94FB003B3324F4222733952D
:1001D8000C94FB004B3324F4332743950C94FB0019
:1001E800473124F4442753950C94FB0055270F936B
:1001F800243664F40AE01127201724F01395201BF5
:100208000C940001105D205D0C940C0123E213E2B4
:10021800AF93BF93B1E0A0E01D932D9300270C93FB
:10022800BF91AF910F9100E000680E949400B1E087
:10023800A0E000E00E94CF0018950FEF0DBF08E086
:100248000EBF00E00093800003E00093810000E00F
:100258000093820001E000936F000E94340001E0E7
:100268000E949400222733274427552778940C941A
:020278003B0148
:00000001FF
